{
  "contractName": "User",
  "abi": [
    {
      "anonymous": false,
      "inputs": [
        {
          "indexed": false,
          "internalType": "string",
          "name": "wallet_id",
          "type": "string"
        },
        {
          "indexed": false,
          "internalType": "string",
          "name": "name",
          "type": "string"
        },
        {
          "indexed": false,
          "internalType": "string",
          "name": "role",
          "type": "string"
        },
        {
          "indexed": false,
          "internalType": "string",
          "name": "mail",
          "type": "string"
        }
      ],
      "name": "UserRegister",
      "type": "event"
    },
    {
      "inputs": [
        {
          "internalType": "uint256",
          "name": "",
          "type": "uint256"
        }
      ],
      "name": "accs",
      "outputs": [
        {
          "internalType": "string",
          "name": "wallet_id",
          "type": "string"
        },
        {
          "internalType": "string",
          "name": "name",
          "type": "string"
        },
        {
          "internalType": "string",
          "name": "role",
          "type": "string"
        },
        {
          "internalType": "string",
          "name": "mail",
          "type": "string"
        }
      ],
      "stateMutability": "view",
      "type": "function"
    },
    {
      "inputs": [],
      "name": "userCount",
      "outputs": [
        {
          "internalType": "uint256",
          "name": "",
          "type": "uint256"
        }
      ],
      "stateMutability": "view",
      "type": "function"
    },
    {
      "inputs": [
        {
          "internalType": "string",
          "name": "_walletID",
          "type": "string"
        },
        {
          "internalType": "string",
          "name": "_name",
          "type": "string"
        },
        {
          "internalType": "string",
          "name": "_role",
          "type": "string"
        },
        {
          "internalType": "string",
          "name": "_mail",
          "type": "string"
        }
      ],
      "name": "createUser",
      "outputs": [],
      "stateMutability": "nonpayable",
      "type": "function"
    }
  ],
  "bytecode": "0x60806040526000805534801561001457600080fd5b50610b1c806100246000396000f3fe608060405234801561001057600080fd5b50600436106100415760003560e01c806307973ccf146100465780636f7fcddb14610064578063e3156a6014610080575b600080fd5b61004e6100b3565b60405161005b919061040c565b60405180910390f35b61007e60048036038101906100799190610581565b6100b9565b005b61009a60048036038101906100959190610684565b6101a3565b6040516100aa9493929190610730565b60405180910390f35b60005481565b6000808154809291906100cb906107c0565b91905055506040518060800160405280858152602001848152602001838152602001828152506001600080548152602001908152602001600020600082015181600001908161011a9190610a14565b5060208201518160010190816101309190610a14565b5060408201518160020190816101469190610a14565b50606082015181600301908161015c9190610a14565b509050507f355050ad922f83b4e3a6b0977c47cbb6aaae3c73eb0533a2886306da449ce4e0848484846040516101959493929190610730565b60405180910390a150505050565b60016020528060005260406000206000915090508060000180546101c690610837565b80601f01602080910402602001604051908101604052809291908181526020018280546101f290610837565b801561023f5780601f106102145761010080835404028352916020019161023f565b820191906000526020600020905b81548152906001019060200180831161022257829003601f168201915b50505050509080600101805461025490610837565b80601f016020809104026020016040519081016040528092919081815260200182805461028090610837565b80156102cd5780601f106102a2576101008083540402835291602001916102cd565b820191906000526020600020905b8154815290600101906020018083116102b057829003601f168201915b5050505050908060020180546102e290610837565b80601f016020809104026020016040519081016040528092919081815260200182805461030e90610837565b801561035b5780601f106103305761010080835404028352916020019161035b565b820191906000526020600020905b81548152906001019060200180831161033e57829003601f168201915b50505050509080600301805461037090610837565b80601f016020809104026020016040519081016040528092919081815260200182805461039c90610837565b80156103e95780601f106103be576101008083540402835291602001916103e9565b820191906000526020600020905b8154815290600101906020018083116103cc57829003601f168201915b5050505050905084565b6000819050919050565b610406816103f3565b82525050565b600060208201905061042160008301846103fd565b92915050565b6000604051905090565b600080fd5b600080fd5b600080fd5b600080fd5b6000601f19601f8301169050919050565b7f4e487b7100000000000000000000000000000000000000000000000000000000600052604160045260246000fd5b61048e82610445565b810181811067ffffffffffffffff821117156104ad576104ac610456565b5b80604052505050565b60006104c0610427565b90506104cc8282610485565b919050565b600067ffffffffffffffff8211156104ec576104eb610456565b5b6104f582610445565b9050602081019050919050565b82818337600083830152505050565b600061052461051f846104d1565b6104b6565b9050828152602081018484840111156105405761053f610440565b5b61054b848285610502565b509392505050565b600082601f8301126105685761056761043b565b5b8135610578848260208601610511565b91505092915050565b6000806000806080858703121561059b5761059a610431565b5b600085013567ffffffffffffffff8111156105b9576105b8610436565b5b6105c587828801610553565b945050602085013567ffffffffffffffff8111156105e6576105e5610436565b5b6105f287828801610553565b935050604085013567ffffffffffffffff81111561061357610612610436565b5b61061f87828801610553565b925050606085013567ffffffffffffffff8111156106405761063f610436565b5b61064c87828801610553565b91505092959194509250565b610661816103f3565b811461066c57600080fd5b50565b60008135905061067e81610658565b92915050565b60006020828403121561069a57610699610431565b5b60006106a88482850161066f565b91505092915050565b600081519050919050565b600082825260208201905092915050565b60005b838110156106eb5780820151818401526020810190506106d0565b60008484015250505050565b6000610702826106b1565b61070c81856106bc565b935061071c8185602086016106cd565b61072581610445565b840191505092915050565b6000608082019050818103600083015261074a81876106f7565b9050818103602083015261075e81866106f7565b9050818103604083015261077281856106f7565b9050818103606083015261078681846106f7565b905095945050505050565b7f4e487b7100000000000000000000000000000000000000000000000000000000600052601160045260246000fd5b60006107cb826103f3565b91507fffffffffffffffffffffffffffffffffffffffffffffffffffffffffffffffff82036107fd576107fc610791565b5b600182019050919050565b7f4e487b7100000000000000000000000000000000000000000000000000000000600052602260045260246000fd5b6000600282049050600182168061084f57607f821691505b60208210810361086257610861610808565b5b50919050565b60008190508160005260206000209050919050565b60006020601f8301049050919050565b600082821b905092915050565b6000600883026108ca7fffffffffffffffffffffffffffffffffffffffffffffffffffffffffffffffff8261088d565b6108d4868361088d565b95508019841693508086168417925050509392505050565b6000819050919050565b600061091161090c610907846103f3565b6108ec565b6103f3565b9050919050565b6000819050919050565b61092b836108f6565b61093f61093782610918565b84845461089a565b825550505050565b600090565b610954610947565b61095f818484610922565b505050565b5b818110156109835761097860008261094c565b600181019050610965565b5050565b601f8211156109c85761099981610868565b6109a28461087d565b810160208510156109b1578190505b6109c56109bd8561087d565b830182610964565b50505b505050565b600082821c905092915050565b60006109eb600019846008026109cd565b1980831691505092915050565b6000610a0483836109da565b9150826002028217905092915050565b610a1d826106b1565b67ffffffffffffffff811115610a3657610a35610456565b5b610a408254610837565b610a4b828285610987565b600060209050601f831160018114610a7e5760008415610a6c578287015190505b610a7685826109f8565b865550610ade565b601f198416610a8c86610868565b60005b82811015610ab457848901518255600182019150602085019450602081019050610a8f565b86831015610ad15784890151610acd601f8916826109da565b8355505b6001600288020188555050505b50505050505056fea26469706673582212208ca4bd20ae91425ba5929171fa23f04bb542847c5567c3e0777af8eeed3c75ec64736f6c63430008120033",
  "immutableReferences": {},
  "source": "// SPDX-License-Identifier: MIT\r\npragma solidity >=0.4.22 <0.9.0;\r\n\r\ncontract User {\r\n    uint256 public userCount = 0;\r\n    struct Accont {\r\n        string wallet_id;\r\n        string name;\r\n        string role;\r\n        string mail;\r\n    }\r\n\r\n    event UserRegister(string wallet_id, string name, string role, string mail);\r\n\r\n    mapping(uint256 => Accont) public accs;\r\n\r\n    function createUser(string memory _walletID, string memory _name, string memory _role, string memory _mail) public {\r\n        userCount++;\r\n        accs[userCount] = Accont(_walletID, _name, _role, _mail);\r\n        emit UserRegister(_walletID, _name, _role, _mail);\r\n    }\r\n\r\n}\r\n",
  "sourcePath": "G:\\Github-Repo\\Tech Creed\\Photo-Blocks\\contracts\\User.sol",
  "compiler": {
    "name": "solc",
    "version": "0.8.18+commit.87f61d96.Emscripten.clang"
  },
  "schemaVersion": "3.4.12",
  "updatedAt": "2023-05-14T06:31:18.500Z",
  "devdoc": {
    "kind": "dev",
    "methods": {},
    "version": 1
  },
  "userdoc": {
    "kind": "user",
    "methods": {},
    "version": 1
  }
}